:020000040000FA
:060000000A128A11FA2F1A
:100DDE00831203138501860187018901F701F8014A
:100DEE000800831203130508031DFE2EFF2E062F87
:100DFE00050885000130F00070088507132F0508DF
:100E0E00F00070078500851F0D2F0E2F122F06176D
:100E1E00F701F801132F06130800831203130708B6
:100E2E00031D1A2F1B2F222F070887000130F000F9
:100E3E00700887072F2F0708F00070078700871F9D
:100E4E00292F2A2F2E2F8617F701F8012F2F861301
:100E5E000800831603178801890183160313850181
:100E6E008312031385010F3083160313860083123A
:100E7E00031386018316031387018312031387015D
:100E8E0083160313890183120313890108000130AD
:100E9E008312031389000230F2000430F100BA30DD
:100EAE00F000F00B582FF10B582FF20B582F0000BB
:100EBE00F301F401831203130908F000700789008F
:100ECE000230F2000430F100BA30F000F00B6D2F5A
:100EDE00F10B6D2FF20B6D2F00000130F30703188D
:100EEE00F40A0030F4077408803AFF0080307F0265
:100EFE00031D832F03307302031C862F872F612F50
:100F0E000130F7000030F8008312031385018601CB
:100F1E00870108000A128A1130270A128A118312D9
:100F2E000313061C9B2F9C2FA72F77087804031DF5
:100F3E00A12FA22FA72F0A128A114E270A128A1149
:100F4E0083120313861CAC2FAD2FC12F77087804A4
:100F5E000319B22FB32FC12F0A128A11F8260A12C3
:100F6E008A118230F600DD30F500F50BBC2FF60B42
:100F7E00BC2FC12F83120313061DC62FC72FDB2FC5
:100F8E00770878040319CC2FCD2FDB2F0A128A1184
:100F9E0014270A128A118230F600DD30F500F50BA7
:100FAE00D62FF60BD62FDB2F83120313861DE02FC1
:100FBE00E12FEF2F0A128A11EF260A128A118230C0
:100FCE00F600DD30F500F50BEA2FF60BEA2FEF2FCA
:100FDE00770C83120313031C061203180616962FA2
:100FEE000A128A110028F701F80183010A128A11E8
:020FFE00912F31
:04400E00D420FF3F7C
:00000001FF
