:020000040000FA
:060000000A128A11FA2F1A
:100DEC00831203138501860187018901F701F8013C
:100DFC000800831203130508031D052F062F0D2F62
:100E0C00050885000130F000700885071A2F0508C9
:100E1C00F00070078500851F142F152F192F06174A
:100E2C00F701F8011A2F06130800831203130708A1
:100E3C00031D212F222F292F070887000130F000D6
:100E4C0070088707362F0708F00070078700871F88
:100E5C00302F312F352F8617F701F801362F8613D7
:100E6C000800831603178801890183160313850173
:100E7C008312031385010F3083160313860083122C
:100E8C00031386018316031387018312031387014F
:100E9C00831603138901831203138901080001309F
:100EAC008312031389000230F2000430F100BA30CF
:100EBC00F000F00B5F2FF10B5F2FF20B5F2F000098
:100ECC00F301F401831203130908F0007007890081
:100EDC000230F2000430F100BA30F000F00B742F45
:100EEC00F10B742FF20B742F00000130F307031871
:100EFC00F40A0030F4077408803AFF0080307F0257
:100F0C00031D8A2F03307302031C8D2F8E2F682F25
:100F1C000130F7000030F8008312031385018601BD
:100F2C00870108000A128A1137270A128A118312C4
:100F3C000313061CA22FA32FAE2F77087804031DD2
:100F4C00A82FA92FAE2F0A128A1155270A128A111F
:100F5C0083120313861CB32FB42FC82F7708780481
:100F6C000319B92FBA2FC82F0A128A11FF260A1299
:100F7C008A118230F600DD30F500F50BC32FF60B2D
:100F8C00C32FC82F83120313061DCD2FCE2FE22F94
:100F9C00770878040319D32FD42FE22F0A128A1161
:100FAC001B270A128A118230F600DD30F500F50B92
:100FBC00DD2FF60BDD2FE22F83120313861DE72F97
:100FCC00E82F9D2F0A128A11F6260A128A118230F6
:100FDC00F600DD30F500F50BF12FF60BF12FF62FA7
:100FEC009D2F0A128A110028F701F80183010A12B9
:040FFC008A11982F8F
:04400E00D420FF3F7C
:00000001FF
